{"abi":[{"type":"constructor","inputs":[{"name":"V2Router02Address_","type":"address","internalType":"address"}],"stateMutability":"nonpayable"},{"type":"function","name":"V2Router02Address","inputs":[],"outputs":[{"name":"","type":"address","internalType":"address"}],"stateMutability":"view"},{"type":"function","name":"swapTokens","inputs":[{"name":"amountIn_","type":"uint256","internalType":"uint256"},{"name":"amountOutMin_","type":"uint256","internalType":"uint256"},{"name":"path_","type":"address[]","internalType":"address[]"},{"name":"deadline_","type":"uint256","internalType":"uint256"}],"outputs":[],"stateMutability":"nonpayable"},{"type":"event","name":"SwapTokens","inputs":[{"name":"tokenIn","type":"address","indexed":false,"internalType":"address"},{"name":"tokenOut","type":"address","indexed":false,"internalType":"address"},{"name":"amountIn","type":"uint256","indexed":false,"internalType":"uint256"},{"name":"amountOut","type":"uint256","indexed":false,"internalType":"uint256"}],"anonymous":false},{"type":"error","name":"SafeERC20FailedOperation","inputs":[{"name":"token","type":"address","internalType":"address"}]}],"bytecode":{"object":"0x608060405234801561000f575f80fd5b50604051610b9e380380610b9e833981810160405281019061003191906100d4565b805f806101000a81548173ffffffffffffffffffffffffffffffffffffffff021916908373ffffffffffffffffffffffffffffffffffffffff160217905550506100ff565b5f80fd5b5f73ffffffffffffffffffffffffffffffffffffffff82169050919050565b5f6100a38261007a565b9050919050565b6100b381610099565b81146100bd575f80fd5b50565b5f815190506100ce816100aa565b92915050565b5f602082840312156100e9576100e8610076565b5b5f6100f6848285016100c0565b91505092915050565b610a928061010c5f395ff3fe608060405234801561000f575f80fd5b5060043610610034575f3560e01c8063aadce83c14610038578063f7b8dc8f14610056575b5f80fd5b610040610072565b60405161004d9190610440565b60405180910390f35b610070600480360381019061006b9190610617565b610095565b005b5f8054906101000a900473ffffffffffffffffffffffffffffffffffffffff1681565b6100dc333086855f815181106100ae576100ad610697565b5b602002602001015173ffffffffffffffffffffffffffffffffffffffff166102e4909392919063ffffffff16565b815f815181106100ef576100ee610697565b5b602002602001015173ffffffffffffffffffffffffffffffffffffffff1663095ea7b35f8054906101000a900473ffffffffffffffffffffffffffffffffffffffff16866040518363ffffffff1660e01b81526004016101509291906106d3565b6020604051808303815f875af115801561016c573d5f803e3d5ffd5b505050506040513d601f19601f82011682018060405250810190610190919061072f565b505f805f9054906101000a900473ffffffffffffffffffffffffffffffffffffffff1673ffffffffffffffffffffffffffffffffffffffff166338ed173986868633876040518663ffffffff1660e01b81526004016101f3959493929190610811565b5f604051808303815f875af115801561020e573d5f803e3d5ffd5b505050506040513d5f823e3d601f19601f82011682018060405250810190610236919061093d565b90507f8dfb86999e54ac203a91b7a8882a5b866d915de0b568e6125956fa6416536b21835f8151811061026c5761026b610697565b5b6020026020010151846001865161028391906109b1565b8151811061029457610293610697565b5b60200260200101518784600186516102ac91906109b1565b815181106102bd576102bc610697565b5b60200260200101516040516102d594939291906109e4565b60405180910390a15050505050565b610360848573ffffffffffffffffffffffffffffffffffffffff166323b872dd86868660405160240161031993929190610a27565b604051602081830303815290604052915060e01b6020820180517bffffffffffffffffffffffffffffffffffffffffffffffffffffffff8381831617835250505050610366565b50505050565b5f8060205f8451602086015f885af180610385576040513d5f823e3d81fd5b3d92505f519150505f821461039e5760018114156103b9565b5f8473ffffffffffffffffffffffffffffffffffffffff163b145b156103fb57836040517f5274afe70000000000000000000000000000000000000000000000000000000081526004016103f29190610440565b60405180910390fd5b50505050565b5f73ffffffffffffffffffffffffffffffffffffffff82169050919050565b5f61042a82610401565b9050919050565b61043a81610420565b82525050565b5f6020820190506104535f830184610431565b92915050565b5f604051905090565b5f80fd5b5f80fd5b5f819050919050565b61047c8161046a565b8114610486575f80fd5b50565b5f8135905061049781610473565b92915050565b5f80fd5b5f601f19601f8301169050919050565b7f4e487b71000000000000000000000000000000000000000000000000000000005f52604160045260245ffd5b6104e7826104a1565b810181811067ffffffffffffffff82111715610506576105056104b1565b5b80604052505050565b5f610518610459565b905061052482826104de565b919050565b5f67ffffffffffffffff821115610543576105426104b1565b5b602082029050602081019050919050565b5f80fd5b61056181610420565b811461056b575f80fd5b50565b5f8135905061057c81610558565b92915050565b5f61059461058f84610529565b61050f565b905080838252602082019050602084028301858111156105b7576105b6610554565b5b835b818110156105e057806105cc888261056e565b8452602084019350506020810190506105b9565b5050509392505050565b5f82601f8301126105fe576105fd61049d565b5b813561060e848260208601610582565b91505092915050565b5f805f806080858703121561062f5761062e610462565b5b5f61063c87828801610489565b945050602061064d87828801610489565b935050604085013567ffffffffffffffff81111561066e5761066d610466565b5b61067a878288016105ea565b925050606061068b87828801610489565b91505092959194509250565b7f4e487b71000000000000000000000000000000000000000000000000000000005f52603260045260245ffd5b6106cd8161046a565b82525050565b5f6040820190506106e65f830185610431565b6106f360208301846106c4565b9392505050565b5f8115159050919050565b61070e816106fa565b8114610718575f80fd5b50565b5f8151905061072981610705565b92915050565b5f6020828403121561074457610743610462565b5b5f6107518482850161071b565b91505092915050565b5f81519050919050565b5f82825260208201905092915050565b5f819050602082019050919050565b61078c81610420565b82525050565b5f61079d8383610783565b60208301905092915050565b5f602082019050919050565b5f6107bf8261075a565b6107c98185610764565b93506107d483610774565b805f5b838110156108045781516107eb8882610792565b97506107f6836107a9565b9250506001810190506107d7565b5085935050505092915050565b5f60a0820190506108245f8301886106c4565b61083160208301876106c4565b818103604083015261084381866107b5565b90506108526060830185610431565b61085f60808301846106c4565b9695505050505050565b5f67ffffffffffffffff821115610883576108826104b1565b5b602082029050602081019050919050565b5f815190506108a281610473565b92915050565b5f6108ba6108b584610869565b61050f565b905080838252602082019050602084028301858111156108dd576108dc610554565b5b835b8181101561090657806108f28882610894565b8452602084019350506020810190506108df565b5050509392505050565b5f82601f8301126109245761092361049d565b5b81516109348482602086016108a8565b91505092915050565b5f6020828403121561095257610951610462565b5b5f82015167ffffffffffffffff81111561096f5761096e610466565b5b61097b84828501610910565b91505092915050565b7f4e487b71000000000000000000000000000000000000000000000000000000005f52601160045260245ffd5b5f6109bb8261046a565b91506109c68361046a565b92508282039050818111156109de576109dd610984565b5b92915050565b5f6080820190506109f75f830187610431565b610a046020830186610431565b610a1160408301856106c4565b610a1e60608301846106c4565b95945050505050565b5f606082019050610a3a5f830186610431565b610a476020830185610431565b610a5460408301846106c4565b94935050505056fea2646970667358221220925ada6bae428fc864da738ea987437e1ada165d3fb6ee798814010fce17239464736f6c63430008180033","linkReferences":{}},"methodIdentifiers":{"V2Router02Address()":"aadce83c","swapTokens(uint256,uint256,address[],uint256)":"f7b8dc8f"},"id":24}