{"abi":[{"type":"constructor","inputs":[{"name":"V2Router02Address_","type":"address","internalType":"address"}],"stateMutability":"nonpayable"},{"type":"function","name":"V2Router02Address","inputs":[],"outputs":[{"name":"","type":"address","internalType":"address"}],"stateMutability":"view"},{"type":"function","name":"swapTokens","inputs":[{"name":"amountIn_","type":"uint256","internalType":"uint256"},{"name":"amountOutMin_","type":"uint256","internalType":"uint256"},{"name":"path_","type":"address[]","internalType":"address[]"},{"name":"deadline_","type":"uint256","internalType":"uint256"}],"outputs":[],"stateMutability":"nonpayable"},{"type":"event","name":"SwapTokens","inputs":[{"name":"tokenIn","type":"address","indexed":false,"internalType":"address"},{"name":"tokenOut","type":"address","indexed":false,"internalType":"address"},{"name":"amountIn","type":"uint256","indexed":false,"internalType":"uint256"},{"name":"amountOut","type":"uint256","indexed":false,"internalType":"uint256"}],"anonymous":false},{"type":"error","name":"SafeERC20FailedOperation","inputs":[{"name":"token","type":"address","internalType":"address"}]}],"bytecode":{"object":"0x608060405234801561000f575f5ffd5b50604051610ba0380380610ba0833981810160405281019061003191906100d4565b805f5f6101000a81548173ffffffffffffffffffffffffffffffffffffffff021916908373ffffffffffffffffffffffffffffffffffffffff160217905550506100ff565b5f5ffd5b5f73ffffffffffffffffffffffffffffffffffffffff82169050919050565b5f6100a38261007a565b9050919050565b6100b381610099565b81146100bd575f5ffd5b50565b5f815190506100ce816100aa565b92915050565b5f602082840312156100e9576100e8610076565b5b5f6100f6848285016100c0565b91505092915050565b610a948061010c5f395ff3fe608060405234801561000f575f5ffd5b5060043610610034575f3560e01c8063aadce83c14610038578063f7b8dc8f14610056575b5f5ffd5b610040610072565b60405161004d9190610442565b60405180910390f35b610070600480360381019061006b9190610619565b610096565b005b5f5f9054906101000a900473ffffffffffffffffffffffffffffffffffffffff1681565b6100dd333086855f815181106100af576100ae610699565b5b602002602001015173ffffffffffffffffffffffffffffffffffffffff166102e6909392919063ffffffff16565b815f815181106100f0576100ef610699565b5b602002602001015173ffffffffffffffffffffffffffffffffffffffff1663095ea7b35f5f9054906101000a900473ffffffffffffffffffffffffffffffffffffffff16866040518363ffffffff1660e01b81526004016101529291906106d5565b6020604051808303815f875af115801561016e573d5f5f3e3d5ffd5b505050506040513d601f19601f820116820180604052508101906101929190610731565b505f5f5f9054906101000a900473ffffffffffffffffffffffffffffffffffffffff1673ffffffffffffffffffffffffffffffffffffffff166338ed173986868633876040518663ffffffff1660e01b81526004016101f5959493929190610813565b5f604051808303815f875af1158015610210573d5f5f3e3d5ffd5b505050506040513d5f823e3d601f19601f82011682018060405250810190610238919061093f565b90507f8dfb86999e54ac203a91b7a8882a5b866d915de0b568e6125956fa6416536b21835f8151811061026e5761026d610699565b5b6020026020010151846001865161028591906109b3565b8151811061029657610295610699565b5b60200260200101518784600186516102ae91906109b3565b815181106102bf576102be610699565b5b60200260200101516040516102d794939291906109e6565b60405180910390a15050505050565b610362848573ffffffffffffffffffffffffffffffffffffffff166323b872dd86868660405160240161031b93929190610a29565b604051602081830303815290604052915060e01b6020820180517bffffffffffffffffffffffffffffffffffffffffffffffffffffffff8381831617835250505050610368565b50505050565b5f5f60205f8451602086015f885af180610387576040513d5f823e3d81fd5b3d92505f519150505f82146103a05760018114156103bb565b5f8473ffffffffffffffffffffffffffffffffffffffff163b145b156103fd57836040517f5274afe70000000000000000000000000000000000000000000000000000000081526004016103f49190610442565b60405180910390fd5b50505050565b5f73ffffffffffffffffffffffffffffffffffffffff82169050919050565b5f61042c82610403565b9050919050565b61043c81610422565b82525050565b5f6020820190506104555f830184610433565b92915050565b5f604051905090565b5f5ffd5b5f5ffd5b5f819050919050565b61047e8161046c565b8114610488575f5ffd5b50565b5f8135905061049981610475565b92915050565b5f5ffd5b5f601f19601f8301169050919050565b7f4e487b71000000000000000000000000000000000000000000000000000000005f52604160045260245ffd5b6104e9826104a3565b810181811067ffffffffffffffff82111715610508576105076104b3565b5b80604052505050565b5f61051a61045b565b905061052682826104e0565b919050565b5f67ffffffffffffffff821115610545576105446104b3565b5b602082029050602081019050919050565b5f5ffd5b61056381610422565b811461056d575f5ffd5b50565b5f8135905061057e8161055a565b92915050565b5f6105966105918461052b565b610511565b905080838252602082019050602084028301858111156105b9576105b8610556565b5b835b818110156105e257806105ce8882610570565b8452602084019350506020810190506105bb565b5050509392505050565b5f82601f830112610600576105ff61049f565b5b8135610610848260208601610584565b91505092915050565b5f5f5f5f6080858703121561063157610630610464565b5b5f61063e8782880161048b565b945050602061064f8782880161048b565b935050604085013567ffffffffffffffff8111156106705761066f610468565b5b61067c878288016105ec565b925050606061068d8782880161048b565b91505092959194509250565b7f4e487b71000000000000000000000000000000000000000000000000000000005f52603260045260245ffd5b6106cf8161046c565b82525050565b5f6040820190506106e85f830185610433565b6106f560208301846106c6565b9392505050565b5f8115159050919050565b610710816106fc565b811461071a575f5ffd5b50565b5f8151905061072b81610707565b92915050565b5f6020828403121561074657610745610464565b5b5f6107538482850161071d565b91505092915050565b5f81519050919050565b5f82825260208201905092915050565b5f819050602082019050919050565b61078e81610422565b82525050565b5f61079f8383610785565b60208301905092915050565b5f602082019050919050565b5f6107c18261075c565b6107cb8185610766565b93506107d683610776565b805f5b838110156108065781516107ed8882610794565b97506107f8836107ab565b9250506001810190506107d9565b5085935050505092915050565b5f60a0820190506108265f8301886106c6565b61083360208301876106c6565b818103604083015261084581866107b7565b90506108546060830185610433565b61086160808301846106c6565b9695505050505050565b5f67ffffffffffffffff821115610885576108846104b3565b5b602082029050602081019050919050565b5f815190506108a481610475565b92915050565b5f6108bc6108b78461086b565b610511565b905080838252602082019050602084028301858111156108df576108de610556565b5b835b8181101561090857806108f48882610896565b8452602084019350506020810190506108e1565b5050509392505050565b5f82601f8301126109265761092561049f565b5b81516109368482602086016108aa565b91505092915050565b5f6020828403121561095457610953610464565b5b5f82015167ffffffffffffffff81111561097157610970610468565b5b61097d84828501610912565b91505092915050565b7f4e487b71000000000000000000000000000000000000000000000000000000005f52601160045260245ffd5b5f6109bd8261046c565b91506109c88361046c565b92508282039050818111156109e0576109df610986565b5b92915050565b5f6080820190506109f95f830187610433565b610a066020830186610433565b610a1360408301856106c6565b610a2060608301846106c6565b95945050505050565b5f606082019050610a3c5f830186610433565b610a496020830185610433565b610a5660408301846106c6565b94935050505056fea2646970667358221220de74c9ad864e2e2951154ffeb28ac6862ab8e23bc68aea1d773df09558bbf4b664736f6c63430008230033","linkReferences":{}},"methodIdentifiers":{"V2Router02Address()":"aadce83c","swapTokens(uint256,uint256,address[],uint256)":"f7b8dc8f"},"id":24}